:100000000C94EA010C943D020C943D020C943D02C8
:100010000C943D020C943D020C943D020C943D0264
:100020000C943D020C943D020C94E9290C943D0281
:100030000C94C0290C943D020C943D020C943D029A
:100040000C943D020C943D020C943D020C943D0234
:100050000C943D020C94252E0C943D020C943D0210
:100060000C943D020C943D020C943D020C943D0214
:100070000C943D020C943D020C943D020C943D0204
:100080000C943D020C943D020C943D020C943D02F4
:100090000C943D020C943D020C943D020C943D02E4
:1000A0000C943D020C943D020C943D0205010902A2
:1000B000A1010901A10085010509190129081500FF
:1000C0002501950875018102050109300931158165
:1000D000257F95027508810609381581257F9501D0
:1000E00075088106050C0A38021581257F95017572
:1000F000088106C0C005010980A101850216010022
:100100002637001A81002AB700751095018100C0BA
:10011000050C0901A1018503160100269C021A01A4
:10012000002A9C02751095018100C005010906A1F5
:1001300001050719E029E7150025019508750181DA
:1001400002950175088101050819012905950575B4
:100150000191029501750391010507190029FF1509
:100160000026FF00950675088100C009023B0002C9
:100170000100A0320904000001030101000921115E
:100180000100012240000705810308000A0904015B
:10019000000103010200092111010001227F000773
:1001A0000582030800011201100100000008EDFEA5
:1001B0005B001508010200013C035500530042009A
:1001C000200074006F002000550053004200200002
:1001D0006B006500790062006F00610072006400CE
:1001E000200063006F006E007600650072007400EE
:1001F000650072000000080354004D004B00000031
:10020000040309047500012802280128022801E1DD
:100210000110021002E101190219010B020B013653
:1002200002360128022801E201620262015A025AE2
:1002300001590259015E025E02E2011C021C011614
:1002400002160117021701080208010C020C011125
:100250000211012802280128022801E1010C020CE8
:10026000010E020E010E020E01080208012C022CE2
:1002700001160216010802080111021101160216E8
:10028000010C020C01170217010C020C01190219D2
:100290000117021702E101280228015202520152FD
:1002A000025201520252014D024D01E1014A024A3D
:1002B00002E1007500012C022C01E101330233023E
:1002C000E1012D022D01E10127022702E1012802AF
:1002D0002800808080800405060708090A0B0C0DA1
:1002E0000E0F101112131415161718191A1B1C1DB6
:1002F0001E1F202122232425262728292A2B2C2DA6
:100300002E2F303132333435363738393A3B3C3D95
:100310003E3F404142434445464748494A4B4C4D85
:100320004E4F505152535455565758595A5B5C5D75
:100330005E5F606162636465736768696A6B6C6D58
:100340006E6F707172736E726A6C68696B716D6FCB
:100350007003020180808066807500747677668005
:1003600080807677808080808080808080808080A0
:10037000808080808080808080808080808080807D
:10038000808080808080808080808080808080806D
:10039000808080808080808080808080808080805D
:1003A000808080808080808080808080808080804D
:1003B000808078797A7B7C7D7E7F80808080808061
:1003C000808080808080808080808080808080802D
:1003D0008080CE2811241FBECFEFDAE0DEBFCDBF74
:1003E00004B603FE28C08091F1049091F204A0911C
:1003F000F304B091F4048730904BA740B04BD9F48C
:100400001092F1041092F2041092F3041092F4048A
:1004100014BE0FB6F894A89580916000886180930F
:100420006000109260000FBE109201081092000848
:10043000E0E0F8E3099511E0A0E0B1E0E4EBFFE5CE
:1004400002C005900D92AA3AB107D9F724E0AAEAB2
:10045000B1E001C01D92A13FB207E1F711E0CAEE81
:10046000D1E004C02197FE010E94BE2FC93ED107F2
:10047000C9F70E94422B0C94D82F0C940000FC0169
:100480008AE794E09583848381E591E0918380837A
:100490008FE691E093838283108E118E128E138EDD
:1004A000148E168E81E0878B168A148A178288E054
:1004B00080878CE381871286138684E08487158683
:1004C00016868787108A118AA0EDB4E090E080E05C
:1004D0002D913D91232B41F4880F991FDC01A053EE
:1004E000BB4FED93FC93089501968031910581F700
:1004F0000895982F9093E900562F40E022E0891745
:1005000031F05091EC002091ED004091F00021FD80
:1005100007C09F5F973071F78093E90081E00895ED
:100520003091EB003E7F3093EB003091ED003D7F4A
:100530003093ED003091EB0031603093EB0050933D
:10054000EC002093ED004093F0002091EE0027FD99
:10055000E0CF80E00895803FC1F48091530387FD90
:10056000109253038091520381110EC08091530366
:1005700081110AC080915403811106C080915503F6
:10058000811102C010924B030895813F29F480919C
:10059000530318162CF3E6CF90915203823F29F4AF
:1005A00097FFE0CF10925203DDCF833F19F4191665
:1005B000CCF3D8CF893F39F480915403181694F6C0
:1005C00010925403CFCF8A3F29F48091540387FFC0
:1005D000C9CFF6CF8B3F39F48091550387FFC2CF47
:1005E00010925503BFCF8C3F29F480915503181604
:1005F000BCF3B8CF843F31F4809151038E7F809358
:100600005103B0CF853F21F4809151038D7FF7CF07
:10061000863F21F4809151038B7FF1CF873F21F4F6
:1006200080915103877FEBCF883F21F48091510364
:100630008F7EE5CF8D3F31F480914C038E7F809388
:100640004C0390CF8E3F21F480914C038D7FF7CFE8
:100650008F3F09F087CF80914C038B7FF0CF809143
:100660004C0380FD16C081FD16C082FD16C080912E
:100670004B038823A1F0883280F428E0829FC001D8
:10068000112468E270E00E94AA2F862F672B39F0B0
:10069000089582E0089584E0089588E0089581E057
:1006A000089580914C0380FD14C081FD14C082FD2B
:1006B00016C080914B03882381F0843180F422E3BB
:1006C000829FC001112464E170E00E94AA2F862F4E
:1006D00008958CE0089589E1089585E0089582E306
:1006E0000895803F31F40E94510381958093530314
:1006F0000895813F19F40E945103F8CF823F31F4ED
:100700000E9451038195809352030895833F19F409
:100710000E945103F8CF893F29F40E942F03809350
:10072000540308958A3F21F40E942F038195F7CF47
:100730008B3F31F40E942F038195809355030895D8
:100740008C3F19F40E942F03F8CF843F31F480913D
:1007500051038160809351030895853F21F4809176
:1007600051038260F7CF863F21F48091510384606A
:10077000F1CF873F21F4809151038860EBCF883F10
:1007800021F4809151038061E5CF8D3F31F4809158
:100790004C03816080934C0308958E3F21F4809137
:1007A0004C038260F7CF8F3FB9F780914C03846090
:1007B000F1CF703168F4603158F420E1729FF0019C
:1007C0001124E60FF11DEE52FD4F6491603819F4CB
:1007D00080E090E00895E62FE295E77028E0829FA0
:1007E000C00111248E0F911D24E0880F991F2A95B6
:1007F000E1F7E62FEF70E80FF92FF11DEE0FFF1F65
:10080000E050F849859194910895EAEAF1E09281E7
:10081000891301C01282319691E0E03BF907B9F7E4
:100820000895ACEAB1E0EFEF90E02D91821751F01E
:10083000EF3F19F4211101C0E92F9F5F9630A9F70E
:10084000EF3F09F408950E2E000CFF0BE655FE4F06
:10085000828308958091450390914403892B80936E
:10086000AA0190914303992381F0892B8093AA01D7
:10087000EBEAF1E080E0919191118F5F91E0E23B32
:10088000F907C9F7811110924303E0914D03F091EC
:100890004E03309731F00280F381E02D8AEA91E037
:1008A000099408954F925F926F927F929F92AF92B8
:1008B000BF92CF92DF92EF92FF920F931F93CF934D
:1008C000DF9300D000D01F92CDB7DEB76B837C835F
:1008D0008D837A018C819D81892B49F08FEFF812ED
:1008E00004C081E09FEF491719F080E001C081E06A
:1008F00080FD67C00F2D10E0CE2CD12C8B8188237A
:1009000009F453C040903F02509040026090410271
:100910007090420280913B0290913C02A0913D0276
:10092000B0913E02482A592A6A2A7B2A2FE1A22E38
:10093000B12C9A2CD301C2010A2C04C0B695A795FC
:10094000979587950A94D2F780FD28C081E0A81A70
:10095000B10878F7912CF80194E0EE0FFF1F9A95FB
:10096000E1F7ED5BFD4FEC0DFD1D9082B701892D88
:100970000F900F900F900F900F90DF91CF911F91DC
:100980000F91FF90EF90DF90CF90BF90AF909F902E
:100990007F906F905F904F900C94D903B7018A2D90
:1009A0000E94D903019791F2D6CFF80184E0EE0FAF
:1009B000FF1F8A95E1F7ED5BFD4FEC0DFD1D90806B
:1009C000D5CF90E080E00F900F900F900F900F9098
:1009D000DF91CF911F910F91FF90EF90DF90CF901B
:1009E000BF90AF909F907F906F905F904F900895D1
:1009F00041E050E060E070E004C0440F551F661F06
:100A0000771F8A95D2F740955095609570958091A3
:100A10003F0290914002A0914102B0914202842392
:100A20009523A623B72380933F0290934002A0937F
:100A30004102B0934202089541E050E060E070E06E
:100A400004C0440F551F661F771F8A95D2F7809107
:100A50003F0290914002A0914102B0914202842B4A
:100A6000952BA62BB72B80933F0290934002A09327
:100A70004102B0934202089580913A029091090296
:100A8000981301C008958F5F8770FACF1F93CF939B
:100A9000DF9300D000D01F92CDB7DEB7942F4983EB
:100AA000252F5A836B837C838D834C815D8181E00C
:100AB000452B31F02F3F19F481E09F3F09F080E092
:100AC000182F117080FD36C049815A816B817C815D
:100AD0008D810E945204E92FE295EF70E250EE30D2
:100AE000F8F4F0E0EA58FA4F0C94BE2F8B058B0512
:100AF000900590058B058B05900590058405840570
:100B00008D05900590058D05803C28F0803E40F0D5
:100B1000815F833028F011E003C093FB112710F9A7
:100B2000812F0F900F900F900F900F90DF91CF912A
:100B30001F91089510E0F4CF882341F080959091A3
:100B400045038923809345030C942A040895882340
:100B500039F090914503892B809345030C942A0426
:100B6000089520910102309102022817390771F08F
:100B70009093020280930102E0914D03F0914E03A5
:100B8000309721F00084F185E02D0994089520919B
:100B9000FF01309100022817390771F0909300028D
:100BA0008093FF01E0914D03F0914E03309721F0C7
:100BB0000680F781E02D09940895E0914D03F091AE
:100BC0004E03309721F00190F081E02D099480E0F0
:100BD0000895E8EDF0E080818E7F80831092E2003E
:100BE0001092DA001092E100A0EEB0E08C918160EA
:100BF0008C9380818F77808319BCA7EDB0E08C91B6
:100C00008E7F8C9380818F7E80831092E701089580
:100C10000E94E905F89487E797E79093010880938D
:100C2000000887E090EBDC018093F1049093F204DC
:100C3000A093F304B093F40488E19CE00FB6F89419
:100C4000A895809360000FBE90936000FFCFCF9275
:100C5000DF92EF92FF920F931F93CF93DF93C8ED34
:100C6000D0E088818F7E8883E7EDF0E0808181602D
:100C7000808384E082BF81E08093E70188818E7F5A
:100C8000888302EE10E0F80110821092DA0081EE03
:100C9000C82ED12CF601108288818F7788838881B5
:100CA0008068888388818F7D888319BC1092FE01BB
:100CB0001092F5011092F4011092F30190EEE92EDA
:100CC000F12CF70180818B7F80838881816088830C
:100CD00060E080E00E947902F60180818E7F80834F
:100CE000F801808181608083808188608083F70142
:100CF00080818E7F8083888180618883DF91CF911E
:100D00001F910F91FF90EF90DF90CF900895FC011D
:100D10008091FC019091FD0186179707A0F0611565
:100D2000710529F49091E8009E779093E80090E097
:100D30006115710551F4911108C08091E80082FF9E
:100D400035C080E00895BC01F2CF8091FE01882378
:100D5000C9F18530C9F18091E80083FD31C08091EF
:100D6000E80082FDEACF8091E80080FFE1CF20918A
:100D7000F3008091F200322F282F6115710519F0D0
:100D80002830310558F091E02830310509F090E025
:100D90002091E8002E772093E800CACF81918093BC
:100DA000F100615071092F5F3F4FE7CF8091FE0145
:100DB000882341F0853041F08091E80083FFBDCF6A
:100DC00081E0089582E0089583E008952091E40091
:100DD0003091E50085E69091EC0090FF06C090917F
:100DE000E80090FF06C080E008959091E80092FD31
:100DF000FACF9091FE01992391F0953091F0909166
:100E0000EB0095FD10C04091E4005091E5002417DF
:100E1000350709F381509A01F1F684E0089582E0E4
:100E2000089583E0089581E008958091F60187FF99
:100E300013C08091E80082FF06C08091E8008B77A4
:100E40008093E80004C08091FE018111F2CF0895E3
:100E50008091FE018823D9F38091E80080FFF8CFCC
:100E60008091E8008E77ECCF0F931F93CF93DF93A1
:100E7000CDB7DEB7AA970FB6F894DEBF0FBECDBFD1
:100E80008091FE01882309F44DC11091E9001F7083
:100E90008091EC0080FF38C080E8182B1092E900A8
:100EA0008091E80083FF3BC1E6EFF1E08091F10023
:100EB000819321E0EE3FF207C9F78091F70183307B
:100EC00009F470C018F5813009F447C0823009F484
:100ED000DAC08091E80083FF14C18091F6019091FF
:100EE000F7019A3008F00DC1E92FF0E0E658F84F0D
:100EF0000C94BE2F54087A0881087A088108DC080F
:100F0000FE088108FC09090A80E0C7CF8A3009F48D
:100F1000A9C08B3009F47DC08930D9F68091F601E3
:100F20008132B9F68091FA019091FB01892B89F603
:100F30008091E800877F8093E8008091E80082FF3D
:100F40002CC08091F1008093EA018091E8008B77BA
:100F50008093E8000E941507BCCF8091F601813A8A
:100F600009F0B7CF8091E800877F8093E8008091F7
:100F7000FA019091FB01892B61F060E090E080E044
:100F800070E00E9487068091E8008B778093E800EC
:100F9000A0CF68E08BEE91E0F3CF8091FE0181114C
:100FA000CCCF97CF8091F601813A09F092CF809112
:100FB000FA019091FB01892BA1F48091E800877FD1
:100FC0008093E8008091E80080FFFCCF80910B01C6
:100FD0008093F1008091E8008E778093E8000E9472
:100FE00015078091FA019091FB01019709F071CFEB
:100FF0008091E800877F8093E8008091E80080FF7F
:10100000FCCF80910A018093F1008091E8008E77F7
:101010009FCF8091F601813209F05BCF8091FA0178
:101020009091FB01892B59F48091E800877F809390
:10103000E8000E9415078091F80180930B018091D0
:10104000FA019091FB01019709F043CF8091E800EC
:10105000877F8093E8000E9415078091F8018093B4
:101060000A0137CF8091F601813209F032CF8091A9
:10107000E800877F8093E8000E9415078091F901BE
:101080008093E90126CF8091F601813A09F021CFC2
:101090008091E800877F8093E8008091E80080FFDE
:1010A000FCCF8091E901AFCF803889F0823849F5D3
:1010B0008091FA018F70873020F58093E90080914C
:1010C000EB0085FB882780F91092E90006C080912B
:1010D000F3019091F401911182609091E800977F63
:1010E0009093E8008093F1001092F1008091E80065
:1010F0008E7731C0282F2D7F21F48823F1F08230A4
:1011000079F18091E80083FF0AC08091E800877F31
:101110008093E8008091EB0080628093EB001F7069
:101120001093E900AA960FB6F894DEBF0FBECDBFAC
:10113000DF91CF911F910F9108958091F801813037
:1011400001F7933009F080E08093F4011092E900F8
:101150008091E800877F8093E8000E941507D1CF37
:101160008091F8018111F2CF8091FA018F702FEFF9
:10117000280F263030F68093E9002091EB0020FF05
:10118000E5CF933031F48091EB0080628093EB00E7
:10119000DDCF9091EB0090619093EB0021E030E087
:1011A00001C0220F8A95EAF72093EA001092EA0024
:1011B0008091EB008860EACF8111A3CF0091F80104
:1011C0000F778091E3008078802B8093E3008091FB
:1011D000E800877F8093E8000E9415078091E8006F
:1011E00080FFFCCF8091E30080688093E30083E080
:1011F000011101C082E08093FE0183CF80588230CC
:1012000008F07FCF8091F8019091F9018C3D23E0A7
:101210009207A1F583E08A838AE289834FB7F89425
:10122000DE01139620E03EE051E2E32FF0E0509320
:101230005700E49120FF03C0E295EF703F5FEF702D
:101240008E2F90E0EA30C0F0C7968D939D932F5F6C
:10125000243159F74FBF8091E800877F8093E800E1
:101260006AE270E0CE0101960E9487068091E80054
:101270008B778093E80045CFC096E7CF4091FA0185
:101280005091FB01292F33272330310509F443C046
:1012900078F52130310509F46DC08BE390E0EBE681
:1012A000F1E02230310509F02CCF2091E800277FB2
:1012B0002093E8002091FC013091FD0182179307F3
:1012C00008F49C0140E02115310509F062C041118C
:1012D00060C08091E80082FDC9CF8091FE01882323
:1012E00029F2853019F28091E80083FFF2CFBECF5A
:1012F0002132310599F12232310509F002CF411531
:10130000510509F441C08FE790E0ECEAF0E041308C
:10131000510559F2F6CE992781309105B9F058F070
:10132000029709F0EECEE8EBF1E0E4918E2F90E029
:10133000E8EBF1E007C0E0E0F2E0E4918E2F90E00E
:10134000E0E0F2E0009709F4DCCEAFCFE6EFF1E0A9
:10135000E4918E2F90E0E6EFF1E0F4CF41155105D6
:1013600071F089E090E0E6E9F1E04130510509F4DF
:101370009CCFC7CE82E190E0E6EAF1E096CF89E02B
:1013800090E0EDE7F1E091CF80E490E0EBE2F1E076
:101390008CCF8091FE01882309F468CF853009F451
:1013A00065CF8091E80083FD61CF8091E80082FDE8
:1013B00090CF8091E80080FF86CF8091F3009091DC
:1013C000F2008927982789272115310519F08830DF
:1013D000910550F041E0089709F040E08091E80065
:1013E0008E778093E8006FCF44914093F10031965F
:1013F000215031090196E8CF803809F082CE8091E2
:10140000E800877F8093E8008091F5018093F100E8
:101410006DCE811176CE0091F801023008F071CEC8
:101420008091E800877F8093E8000093F5010E9497
:101430001507002361F084E08093FE0161EC81E0F8
:101440000E94790261EC82E00E9479025ACE80917A
:10145000E30087FDF0CF81E0EFCFEF92FF920F9393
:101460001F93CF937C018B010E94E606C82F811148
:1014700019C08091E80085FD0DC08091E8008E774D
:101480008093E8000E9434070E94E606882389F3CF
:10149000C82F08C0F70181917F018093F1000150AE
:1014A000110939F78C2FCF911F910F91FF90EF9079
:1014B00008958091EA0108950F931F93CF93DF93CE
:1014C000FC018B01EA0180819181892B31F19281AC
:1014D000992349F128813981232BF9F0D8012D91E5
:1014E0003C91D9014C918381682F691B770B8081D6
:1014F0009181860F971FDC014C93828181508283FA
:1015000088819981019799838883D8018D919C91D5
:10151000119701968D939C93DACF80E0DF91CF9164
:101520001F910F9108958381828381E0F7CFCF933C
:10153000DF93EC018A819B81DC01ED91FC910480B9
:10154000F581E02D6A8509958A85813439F4EA812F
:10155000FB81EA58FF4F80818B7F80831A861B8630
:101560001C861D861E861F86188A80E0DF91CF911B
:10157000089581E0693009F080E00895FC018285DA
:101580000895DF92EF92FF920F931F93CF93DF9313
:10159000EC0185E0E62EF12CFE01869FE00DF11DA9
:1015A0001124908596FF24C0192F177001E085E063
:1015B000D82E8FEF800F8F3008F001E0602F70E0A1
:1015C000062FD69EF001D79EF00D1124EC0FFD1FC3
:1015D00080858695869586958770181701F16F5FCF
:1015E0007F4F603168F38D81811302C011501D83DC
:1015F00085E08E9DF0018F9DF00D1124EC0FFD1FF5
:10160000108681E0818712862296D783C683DF9178
:10161000CF911F910F91FF90EF90DF900895CE0131
:101620000E94C10AC6CFFC0121E0613499F49C01FB
:10163000255B3F4F61E0AC014E5F5F4F15866687CB
:1016400017865487438735962E173F07B9F7FC0155
:10165000158208953585631729F02F5F359620315F
:10166000C9F70895622F0C94C10ACF93DF93FC0150
:1016700067FD12C0283080F4442319F0858187303B
:1016800059F0EF01A1E0B0E08D85882349F1119672
:101690002596A031B105C1F780E018C085E08A9F8A
:1016A000E0018B9FD00D1124CE0FDF1F442389F062
:1016B00081E4888785818F5F858325E02A9FC0012B
:1016C0002B9F900D1124E80FF91F8085DF91CF919A
:1016D000089581E08887F1CF2770687B622B0FC067
:1016E0006623E1F26770660F660F660F4423A1F36D
:1016F000606485818F5F85838770687F682B25E0B4
:101700002A9FC0012B9F900D1124E80FF91F6087BD
:10171000862FDCCFFC0121E0611102C006960895FE
:101720003585631739F02F5F35962031C9F790E082
:1017300080E00895069635E0239F800D911D1124C9
:1017400008950F931F93CF93DF932115310599F0DF
:10175000E901042F162F0E948A0BFC0186ED3097B9
:1017600029F01283D183C083038380E0DF91CF917E
:101770001F910F91089588EDF9CF81E008952FB75B
:10178000F8946091460370914703809148039091CB
:1017900049032FBF08952FB7F89480914603909185
:1017A0004703A0914803B09149032FBF0895CF93F9
:1017B000DF9300D000D01F92CDB7DEB785E0E1E522
:1017C000F3E0DE01119601900D928A95E1F7E09128
:1017D0004D03F0914E03309731F00480F581E02DF8
:1017E000CE01019609950E94CB0B909350038093F4
:1017F0004F030F900F900F900F900F90DF91CF91AC
:10180000089510924403EAEAF1E0118212821382F1
:1018100014821582168217820E942A0485E0E1E56F
:10182000F3E0DF011D928A95E9F710924B031092C5
:101830004C030E94D70B90E080E00E94C70590E027
:1018400080E00C94B1058F929F92AF92BF92CF929D
:10185000DF92EF92FF920E94862E4B015C0120E006
:1018600030E04AE755E40E94152F6B017C0120E02F
:1018700030E040E85FE30E944B2E87FD30C020E05F
:101880003FEF4FE757E4C701B6010E94102F18162B
:10189000F4F420E030E040E251E4C501B4010E94DC
:1018A000152F0E94572E20E931E06115710549F48A
:1018B000FF90EF90DF90CF90BF90AF909F908F9070
:1018C0000895C9010197F1F761507109EECFC70181
:1018D000B6010E94572ECB010197F1F7E9CF61E0E5
:1018E00070E0F9CFCA01089581E090E0089508956D
:1018F00081E090E008958FEF9FEF089590E080E001
:1019000008950895EF92FF92CF93DF93FC01E701D2
:101910008789823028F0948996132CC0823051F543
:10192000648B458B9B819370933021F59A8197FF4F
:1019300021C09E81258D291708F4958F282F30E02E
:10194000D901AA0FBB1FA20FB31FAE0FBF1F9A81F1
:101950009F7017969C9317979C8118969C93189745
:1019600094E019969C932E0F3F1FD90151964C93EA
:101970008F5F878BDF91CF91FF90EF900895EF926B
:10198000FF920F9302970E94820C0F91FF90EF90AD
:10199000089570E0685F7F4F660F771F860F971F6F
:1019A000FC0180819181089581E0613009F080E03F
:1019B000089581E0633009F080E00895FC0186819C
:1019C0000895CF93DF93EC018C819D81DC01ED9133
:1019D000FC910480F581E02D6E8109951C8A1D8A99
:1019E00081E08F8B1E82188E198E1A8E1B8E1C8E94
:1019F00080E0DF91CF9108952E9808952E9A089552
:101A00000F931F93CF93DF93D82FC62F8A010E9485
:101A1000FC0CD260DEBDF8018C2F882339F00DB4A8
:101A200007FEFDCF91919EBD8150F7CFC00FD12F02
:101A3000D11D0DB407FEFDCF0E94FE0CCE01DF913B
:101A4000CF911F910F910895CF93DF93C82FD62F79
:101A50000E94FC0CC260CEBD0DB407FEFDCFDEBD02
:101A60000DB407FEFDCFDF91CF910C94FE0CCF9308
:101A7000C82F0E94FC0CCEBD0DB407FEFDCF1EBCCE
:101A80000DB407FEFDCF0E94FE0C8EB5CF910895D8
:101A90008F929F92AF92BF92CF92DF92EF92FF927E
:101AA0000F931F93CF93DF93882E962E5A010E9497
:101AB000BF0B6B017C0128E8C20E23E1D21EE11CA2
:101AC000F11CC0E010E000E0D0E098280E94BF0BBD
:101AD0006C197D098E099F0997FF1EC0692D80EF43
:101AE0000E94240D0E94BF0B6C197D098E099F096D
:101AF00097FF09C088EC0E94370D87FFF3CF60E89D
:101B000088EC0E94240D88EF0E94370DC82FCF70FB
:101B1000C43081F0CE30B9F08C2FDF91CF911F917E
:101B20000F91FF90EF90DF90CF90BF90AF909F907C
:101B30008F9008950F5F1F4FA114B10439F20A1559
:101B40001B0521F6E9CFDF5FD33009F0BFCFE4CF2B
:101B5000AF92BF92CF92DF92EF92FF920F931F93BB
:101B6000CF93DF93EC01B62EA42E69010E948A0B5D
:101B70007C0186EDE114F10409F447C0D701ED9131
:101B8000FC91119787ED309709F43FC013969C9113
:101B900080E0981731F02081A21629F033968F5FEC
:101BA000F8CFF0E0E0E0D601ED93FC938BED3097B9
:101BB00061F1228126952695203108F02FE081E001
:101BC00090E0A0E0B0E004C0880F991FAA1FBB1FDF
:101BD0002A95D2F70197F801918380836B2D80EECF
:101BE0000E94240D88ED0E94370DD70114969C9118
:101BF000682F697F992329F0CA58DF4F6881626096
:101C0000682B88ED0E94240D80E0DF91CF911F9119
:101C10000F91FF90EF90DF90CF90BF90AF9008951D
:101C20009F92AF92BF92CF92DF92EF92FF920F936B
:101C30001F93CF93DF936C01C42FD22F99249394D9
:101C4000E62EF12CEE0CFF1CE80EF91E86E5E80EE0
:101C5000F11CA42EB12CABE2AA0EB11CAA0CBB1C29
:101C6000AC0CBD1CF70180819181DC01ED91FC91F0
:101C70000280F381E02D202F4D2F6C2F0995182F16
:101C8000803E09F066C0C11158C061E088EE0E9434
:101C9000240D88EE0E94370D80FDFBCF60E488ECB8
:101CA0000E94240D88ED0E94370D682F686088ED32
:101CB0000E94240D88EC0E94370D86FFFBCF66E65C
:101CC00070E080E090E00E94230CF7018081918118
:101CD000DC01ED91FC910190F081E02D202F4D2F42
:101CE0006C2F0995182F8D3009F051C08FEF890D99
:101CF0008330A8F1C1114EC061E088EE0E94240D2E
:101D000088EE0E94370D80FDFBCF60E488EC0E94D6
:101D1000240D88ED0E94370D682F686088ED0E94C1
:101D2000240D88EC0E94370D86FFFBCF66E670E03D
:101D300080E090E00E94230C1DC0F501808191811C
:101D4000DC01ED91FC910284F385E02D6D2F099566
:101D5000BCCF8D3061F48FEF890D833058F464E689
:101D600070E080E090E00E94230C93947BCF882366
:101D700009F4ABCF812FDF91CF911F910F91FF908D
:101D8000EF90DF90CF90BF90AF909F900895882301
:101D900089F3B0CF8C2F90E08B96880F991F8C0D14
:101DA0009D1DFC0180819181DC01ED91FC910284FB
:101DB000F385E02D6D2F0995DDCF88EC0E94370D5E
:101DC00085FF14C060E288EC0E94240D88EF0E9419
:101DD000370D807C90910C018917E1F180930C0103
:101DE000803409F150F4882379F1089580915A03E1
:101DF000811130C064E088EEE7CF803819F0803C74
:101E000009F1089588ED0E94370D90915A0381FDE4
:101E100011C09230F9F061EC88ED0E94240D82E04F
:101E200080935A03089588ED0E94370D90915A03CC
:101E300081FDEFCF933071F063EC88ED0E94240DAB
:101E400083E0EECF81E0ECCF61EC88ED0E94240DC1
:101E500010925A030895FC01848D089570E0685F24
:101E60007F4F660F771F860F971FFC0151834083BA
:101E700081E00895CF93DF93CDB7DEB728970FB6F3
:101E8000F894DEBF0FBECDBFE22F29833A834B8388
:101E90005C836D837E838F8398872091BD012E2B79
:101EA0002093BD01FE013396AE01475F5F4F219144
:101EB000243060F0AFEBB1E090E080E03D91311173
:101EC00011C083549E4FDC0112962C93E417F50742
:101ED00071F728960FB6F894DEBF0FBECDBFDF9125
:101EE000CF91089501968630910541F7EFCFCF93BA
:101EF000DF93FC01DA018281882359F0813069F097
:101F000081E023813481232B09F080E0DF91CF91A0
:101F100008953483238381E08283838194810097B1
:101F2000B1F02D913C911197232B51F3019794839C
:101F30008383EB01888199810196998388838D91B0
:101F40009C911197019711969C938E93E6CF1282E4
:101F5000D7CF2F923F924F925F926F927F928F9244
:101F60009F92AF92BF92CF92DF92EF92FF920F9328
:101F70001F93CF93DF9300D000D0CDB7DEB76C01B5
:101F80007A8369835C834B832C0182E1480E511C68
:101F900083E0282E5601A7E0AA0EB11C12E03324DC
:101FA00033944601B0E18B0E911C3601EBE06E0ECE
:101FB000711C29813A812115310509F4D4C0D6015B
:101FC00090968C918230F1F0B0F5882309F45AC0D4
:101FD000813089F7AE014F5F5F4FBE016D5F7F4F6C
:101FE000C5010E945C0A882309F4BDC0D60115967C
:101FF000ED91FC911697808191968C9391978181B8
:1020000092968C93F6015682458220A2D601929632
:102010008C919297843011F493961C92F60181A1D1
:102020008250848325813681308727838287818708
:1020300084E080A305C0833049F3843009F0BBCF2E
:10204000D60192968C91843039F1853009F44FC0D5
:10205000823009F079C0AE014F5F5F4FBE016D5F06
:102060007F4FC5010E945C0A882309F47CC0F601F9
:10207000858984A3D60116969C928E921597909688
:102080001C9297CFF6011483858196819087878370
:102090001287118730A29ECFAE014F5F5F4FBE0106
:1020A0006D5F7F4FC5010E945C0A882309F45BC005
:1020B000D60155968C9155978330E1F656968C91C2
:1020C00056978130B9F698969C91989757968C912F
:1020D000992351F0882371F2F60133A2928996A3D5
:1020E000938997A385A3C6CF813021F6F5CFAE01A2
:1020F0004F5F5F4FBE016D5F7F4FC5010E945C0A5D
:10210000882389F1D60193968C919397882309F4BB
:10211000B1CF12968D919C91009709F4ABCFDC0161
:10212000ED91FC910190F081E02D7401D60195961E
:102130000C91959797962C91979796964C91969788
:1021400094966C91099596CFF60121A12250330BFC
:10215000AE014F5F5F4FBE016D5F7F4FC3010E94B5
:10216000770F811187CF0F900F900F900F90DF9115
:10217000CF911F910F91FF90EF90DF90CF90BF9084
:10218000AF909F908F907F906F905F904F903F9017
:102190002F9008952F923F924F925F926F927F926D
:1021A0008F929F92AF92BF92CF92DF92EF92FF9267
:1021B0000F931F93CF93DF9300D000D0CDB7DEB73E
:1021C0006C017A8369835C834B832C0182E1480E26
:1021D000511C83E0282E5601A7E0AA0EB11C12E084
:1021E000332433944601B0E18B0E911C3601EBE0B1
:1021F0006E0E711C29813A812115310509F4CFC079
:10220000D60190968C918230F1F0B0F5882309F4D4
:102210005AC0813089F7AE014F5F5F4FBE016D5FDD
:102220007F4FC5010E945C0A882309F4B8C0D6011B
:102230001596ED91FC911697808191968C939197CC
:10224000818192968C93F6015682458220A2D60116
:1022500092968C919297843011F493961C92F60189
:1022600081A18250848325813681308727838287AC
:10227000818784E080A305C0833049F3843009F06E
:10228000BBCFD60192968C91843039F1853009F418
:102290004AC0823009F074C0AE014F5F5F4FBE018B
:1022A0006D5F7F4FC5010E945C0A882309F477C0E7
:1022B000F601858984A3D60116969C928E92159775
:1022C00090961C9297CFF601148385819681908712
:1022D00087831287118730A29ECFAE014F5F5F4F79
:1022E000BE016D5F7F4FC5010E945C0A882309F41F
:1022F00056C0D60155968C9155978330E1F6989645
:102300009C91989757968C91992351F0882399F234
:10231000F60133A2928996A3938997A385A3CBCF85
:10232000813049F6F5CFAE014F5F5F4FBE016D5F63
:102330007F4FC5010E945C0A882389F1D6019396DC
:102340008C919397882309F4B6CF12968D919C9126
:10235000009709F4B0CFDC01ED91FC910190F08180
:10236000E02D7401D60195960C91959797962C9136
:10237000979796964C91969794966C9109959BCFCA
:10238000F60121A12250330BAE014F5F5F4FBE011A
:102390006D5F7F4FC3010E94770F81118CCF0F902B
:1023A0000F900F900F90DF91CF911F910F91FF90A1
:1023B000EF90DF90CF90BF90AF909F908F907F90E5
:1023C0006F905F904F903F902F9008952F923F9283
:1023D0004F925F926F927F928F929F92AF92BF9235
:1023E000CF92DF92EF92FF920F931F93CF93DF93E1
:1023F00000D000D0CDB7DEB76C017A8369835C83EF
:102400004B832C0182E1480E511C83E0282E56019B
:10241000A7E0AA0EB11C12E0332433944601B0E1C8
:102420008B0E911C3601EBE06E0E711C29813A81F6
:102430002115310509F4D2C0D60190968C918230D5
:10244000F1F0B0F5882309F45AC0813089F7AE0164
:102450004F5F5F4FBE016D5F7F4FC5010E945C0AF9
:10246000882309F4BBC0D6011596ED91FC9116970F
:10247000808191968C939197818192968C93F601AD
:102480005682458220A2D60192968C9192978430F2
:1024900011F493961C92F60181A1825084832581C8
:1024A0003681308727838287818784E080A305C0B7
:1024B000833049F3843009F0BBCFD60192968C91DA
:1024C000843039F1853009F450C0823009F077C08A
:1024D000AE014F5F5F4FBE016D5F7F4FC5010E9430
:1024E0005C0A882309F47AC0F601858984A3D601A1
:1024F00016969C928E92159790961C9297CFF60105
:10250000148385819681908787831287118730A2F3
:102510009ECFAE014F5F5F4FBE016D5F7F4FC50124
:102520000E945C0A882309F459C0D60155968C9103
:1025300055978330E1F698968C9198978111D7CF73
:1025400093963C92939752968C91529796968C9331
:10255000969753968C91539797968C9397975796F7
:102560008C91579795968C93C2CFAE014F5F5F4F7A
:10257000BE016D5F7F4FC5010E945C0A882371F127
:10258000F60183A1882309F4B2CF82819381009759
:1025900009F4ADCFDC01ED91FC910190F081E02DCB
:1025A0007401D60195960C91959797962C919797D3
:1025B00096964C91969794966C91099598CFF601C2
:1025C00021A12250330BAE014F5F5F4FBE016D5F03
:1025D0007F4FC3010E94770F811189CF0F900F9019
:1025E0000F900F90DF91CF911F910F91FF90EF907F
:1025F000DF90CF90BF90AF909F908F907F906F9023
:102600005F904F903F902F90089580E00895089537
:1026100080E008952F923F924F925F926F927F9247
:102620008F929F92AF92BF92CF92DF92EF92FF92E2
:102630000F931F93CF93DF937B014A016901F90147
:10264000A080B180FB012180F90111821082FB0181
:10265000828160E181FD60E288EE0E94240D3A2CC7
:10266000A401F701608180E00E94480D582EF6E039
:102670008F17B1F381114EC088EC0E94370D82FF95
:102680005DC080E30E94370D482E8A151B0411F0AF
:1026900008F0432CF601808191813501681A790A8E
:1026A00077FE02C0712C612CC42DD0E0C615D70571
:1026B0000CF43E01562C0E94FC0CF8E0FEBD0DB45B
:1026C00007FEFDCFF801552041F01EBC5A940DB411
:1026D00007FEFDCF8EB58193F6CF060D171D0E9424
:1026E000FE0C64E088EC0E94240DF601808191814B
:1026F000C80FD91FD183C083421420F0CA15DB054F
:1027000008F4AECF88EF0E94370DF701928184FB69
:1027100091F99283852DDF91CF911F910F91FF90B9
:10272000EF90DF90CF90BF90AF909F908F907F9071
:102730006F905F904F903F902F90089580EF582EAC
:10274000E9CFAF92BF92CF92DF92EF92FF920F93B9
:102750001F93CF93DF9300D000D0CDB7DEB77C01BD
:10276000690158011C821B821A8219828E010F5F37
:102770001F4F9E012D5F3F4F0E94A80D811109C080
:1027800049815A816B817C8185019601C7010E9434
:102790000A130F900F900F900F90DF91CF911F9120
:1027A0000F91FF90EF90DF90CF90BF90AF90089582
:1027B0002F923F924F925F926F927F928F929F9251
:1027C000AF92BF92CF92DF92EF92FF920F931F933F
:1027D000CF93DF93CDB7DEB765970FB6F894DEBF22
:1027E0000FBECDBF3C01342E222E402EED8AEAA42E
:1027F000FBA4188A1F861E861D868E01035F1F4F4D
:102800009E01215F3F4F40E00E94A80D582E81118C
:102810001AC139822A824B822D892C83DE82CD8295
:10282000B886AF82AE014F5F5F4F68E080E20E94E2
:10283000000D4D855E8560E080E10E94480D8111AC
:1028400020C1E114F10409F449C00F851889D801A9
:1028500012968C91129737FE47C0826012968C9325
:102860006501C114D10409F411C19C2D8D2D8C1466
:102870009D0410F4982D892D9B878C874D855E854E
:102880006F85788987019E01255F3F4FC3010E94B4
:102890000A13582EB6E08B1721F38111D4C0ECA592
:1028A000FDA53097A1F06B857C850190F081E02D2E
:1028B0000190F081E02DC5018C199D099A878987C7
:1028C0009E01275F3F4FA7018CA59DA509958B858C
:1028D0009C85C81AD90A8815990518F64D855E8514
:1028E00037FECBC080EACAC0816012968C931297E3
:1028F00011966C908FEF860D803408F0C4C02D8443
:102900003E840E94BF0B9B01AC0128573C4E4F4FA9
:102910005F4F298B3A8B4B8B5C8BD80112968C9135
:1029200060E880FF60E488EE0E94240D512C712C39
:102930008114910409F476C063018614970408F4A5
:102940006401CD8AA7016C2D80E10E94000D6C2DE1
:1029500088E30E94240DF8016081606280EF0E948C
:10296000240D88EC0E94370D87FFFBCF60E888ECD0
:102970000E94240D88EF0E94370D8F70582E412C35
:10298000B12CA12C552019F10E94BF0B29893A893D
:102990004B895C89621B730B840B950B97FF17C0E7
:1029A00036E05316E9F04EE05416B1F054E05512FB
:1029B00009C08FEFA81AB80A2114310489F02A142B
:1029C0003B0471F460E088E30E94240D2DC08C1854
:1029D0009D08EC0CFD1CACCF439493E0491691F399
:1029E00060E088E30E94240DD7016C9180E10E9491
:1029F000240D6D8988E30E94240DF80160816062D6
:102A000080EF0E94240D88EC0E94370D87FFFBCFDA
:102A100060E888EC0E94240D88EF0E94370D8F70CB
:102A2000582EB0CF5110CECF88EF0E94370DD8016D
:102A300012969C91129785FB90F912969C934D8566
:102A40005E855520D1F0852D65960FB6F894DEBFD2
:102A50000FBECDBFDF91CF911F910F91FF90EF90EF
:102A6000DF90CF90BF90AF909F908F907F906F90AE
:102A70005F904F903F902F90089580E860E00E9413
:102A8000480D582EE0CF8AED582EDDCF4D855E855E
:102A9000552009F427CFD7CF8F929F92AF92BF9244
:102AA000CF92DF92EF920F93CF931F921F921F92BC
:102AB0001F92912C812CB12CA12CD12CC12CE12C5A
:102AC000062F25E040E060E00E94D813C82F6CE29A
:102AD00071E080E090E00E94230C0F900F900F9027
:102AE0000F908C2FCF910F91EF90DF90CF90BF90F0
:102AF000AF909F908F9008958F929F92AF92BF92C8
:102B0000CF92DF92EF920F931F921F923F932F93DA
:102B10004A015A01D12CC12CEE24E39400E026E0B6
:102B200040E80E94D8130F900F900F900F900F91D4
:102B3000EF90DF90CF90BF90AF909F908F900895CF
:102B40008F929F92AF92BF92CF92DF92EF920F93AC
:102B50001F931F921F921F930F934A015A01D12C6A
:102B6000C12C32E0E32E022F26E040E80E94D81369
:102B70000F900F900F900F901F910F91EF90DF909B
:102B8000CF90BF90AF909F908F9008955F926F927B
:102B90007F928F929F92AF92BF92CF92DF92EF92ED
:102BA000FF920F931F93CF93DF93CDB7DEB7C0543F
:102BB000D1090FB6F894DEBF0FBECDBF3C01F62E93
:102BC000542EE22E932ECE0101966C018C01242FFF
:102BD00049E050E0C3010E94A015811118C0AB80EC
:102BE000BC809F92EF92DF92CF9280E4882E912C4E
:102BF000D12CC12C92E0E92E052D26E040E86F2D66
:102C0000C3010E94D8130F900F900F900F90C05CDB
:102C1000DF4F0FB6F894DEBF0FBECDBFDF91CF916F
:102C20001F910F91FF90EF90DF90CF90BF90AF90EA
:102C30009F908F907F906F905F9008958F929F925A
:102C4000AF92BF92CF92DF92EF920F93C42ED12C0E
:102C50001F921F921F921F92912C812CB12CA12C9C
:102C6000E12C062F21E043E2FC0162858281938101
:102C70000E94D8130F900F900F900F900F91EF902C
:102C8000DF90CF90BF90AF909F908F9008958F92DC
:102C90009F92AF92BF92CF92DF92EF920F93C62E88
:102CA000D12C1F921F925F934F9324E0822E912C80
:102CB00034E0A32EB12CE12C00E020E043EAFC013B
:102CC0006285828193810E94D8130F900F900F909C
:102CD0000F900F91EF90DF90CF90BF90AF909F90AB
:102CE0008F9008958F929F92AF92BF92CF92DF9272
:102CF000EF920F93C42ED12C1F921F921F921F92FE
:102D0000912C812CB12CA12CE12C062F23E043E245
:102D1000FC016285828193810E94D8130F900F90ED
:102D20000F900F900F91EF90DF90CF90BF90AF90EA
:102D30009F908F900895CF92DF92FF920F931F93F1
:102D4000CF93DF9300D000D0CDB7DEB78C01F62E45
:102D500019821A821B821C82462F61E10E941E1674
:102D60004F2D60E1C8010E941E164F2D64E0C8017E
:102D70000E94721683E0C82ED12CAE014F5F5F4FC8
:102D80006F2DC8010E944716811114C089819A8154
:102D9000AB81BC819D7F83309140A041B10551F052
:102DA00064E670E080E090E00E94230C81E0C81AA5
:102DB000D10819F74F2D64E1C8010E941E164F2D4E
:102DC00060E1C8010E941E1664E170E080E090E0BE
:102DD0000E94230C0F900F900F900F90DF91CF91D6
:102DE0001F910F91FF90DF90CF9008952F923F9207
:102DF0004F925F926F927F928F929F92AF92BF920B
:102E0000CF92DF92EF92FF920F931F93CF93DF93B6
:102E1000CDB7DEB7E8970FB6F894DEBF0FBECDBFD3
:102E2000DC011A963C91311125C1922E242E362EAA
:102E30003C01FC01E280F380D701ED91FC9101900F
:102E4000F081E02D60E0C70109958C01009709F43D
:102E500014C1FC01C080D180C114D10409F410C197
:102E60005301F4E0AF0EB11CDC011196BC92AE929E
:102E700014969C92FE0131962F019F0148E050E08C
:102E800060E0D30112968D919C910E947C15982E42
:102E9000F80114828111FAC08D8191ED992E89304B
:102EA00059F58980D701ED91FC910280F381E02DE5
:102EB000222D41E0632DC7010995F3018287882304
:102EC00009F4E1C098859583682F828193810E94DF
:102ED0004C15982ED801CD92DC92882339F1D70178
:102EE000ED91FC910480F581E02DD3011A966C914F
:102EF000C7010995F3011286892DE8960FB6F8945B
:102F0000DEBF0FBECDBFDF91CF911F910F91FF901C
:102F1000EF90DF90CF90BF90AF909F908F907F9079
:102F20006F905F904F903F902F900895811082C0D6
:102F3000950142E0F3016285828193810E94A10B99
:102F4000982E8111D9CF1F921F925F924F9258E015
:102F5000852E912C68E0A62EB12CD12CC12C79E2C3
:102F6000E72E00E026E040EAF3016285828193814A
:102F70000E94D813982E0F900F900F900F908111F0
:102F8000BBCF8B81D3011B968C931B97820120E0D2
:102F900048E050E01A966C911A9712968D919C9188
:102FA0000E94A015982E8111A7CF4B815C8120E053
:102FB000F3016285828193810E94A015982E811170
:102FC0009BCF498150E08E010F5D1F4F20E0D30160
:102FD0001A966C911A9712968D919C910E94A01549
:102FE000982E811189CF1F921F921F921F92912CB0
:102FF000812CB12CA12CE12C0E8129E040E0F301C1
:103000006285828193810E94D813982E0F900F9031
:103010000F900F90811170CF11E0D3011B968C910E
:103020001B978117D0F0412F68E0C3010E947216F0
:103030001F5FF3CF482D413208F040E250E092018B
:10304000D3011A966C911A9712968D919C910E94B9
:103050007C15982E811150CF6BCF1296ED91FC917B
:103060001397EA58FF4F80818460808381E05096F7
:103070008C9342CF49ED942E3FCF36ED932E3CCF2B
:1030800027ED922E39CF84ED982E36CFD182C08293
:1030900033CF2F923F924F925F926F927F928F9297
:1030A0009F92AF92BF92CF92DF92EF92FF920F93D7
:1030B0001F93CF93DF93CDB7DEB7C45AD1090FB6B4
:1030C000F894DEBF0FBECDBFDC0116963C913111E6
:1030D00087C2522E342E462E3C01FC01A480B580BE
:1030E000158ED501ED91FC910190F081E02D60E00D
:1030F000C50109956C010097E9F4A6ED3A2E832DE0
:10310000CC55DF4F0FB6F894DEBF0FBECDBFDF91B9
:10311000CF911F910F91FF90EF90DF90CF90BF90D4
:10312000AF909F908F907F906F905F904F903F9067
:103130002F900895FC01808091808114910409F4FE
:1031400052C28301095F1F4F1183008354829E0185
:103150002D563F4F48E050E060E0D30114968D912A
:103160009C910E947C15E82E811143C2CD56DF4F01
:10317000F880C359D040F60191828082D501ED914B
:10318000FC910280F381E02D232D40E0642DC501E8
:103190000995F3018683882309F428C2C656DF4FB8
:1031A0009881CA59D0409087682F848195810E9468
:1031B0004C15382ED501ED91FC91D60114961C9238
:1031C000882359F00480F581E02DD30116966C9187
:1031D000C5010995F301168292CF0190F081E02D8F
:1031E000D30116966C91C5010995009709F485CF16
:1031F000FC015482980141E0D30116966C91169718
:1032000014968D919C910E94A10BF110EFC0CC55AA
:10321000DF4F2880C45AD0404301B2E08B0E911C8E
:103220007AE6E72EF12CEC0EFD1EE0E1EE0EF11C2D
:10323000E1E4CE2ED12CCC0EDD1EF0E1CF0ED11C60
:10324000FDE14F2EF1E05F2E5E0121E1A20EB11CE7
:10325000231409F4C8C0E1E1F1E0AC96FFAFEEAF92
:10326000AC97AE969FAE8EAEAE97AF961FAEAF97B1
:10327000E4961FAEE497E5961FAEE597E8961FAE7D
:10328000E897EA961FAE1EAEEA97C657DF4F188240
:10329000CA58D040C557DF4F1882CB58D040C457CA
:1032A000DF4F1882CC58D040CE56DF4F1882C2591B
:1032B000D040E196FFAEEEAEE197E396FFAEEEAE04
:1032C000E397E796FFAEEEAEE7979E0126593F4F94
:1032D000432DD30116966C91169714968D919C915F
:1032E0000E94C615F3018789823008F07CC087E10F
:1032F00091E023969FAF8EAF239725969FAE8EAE1B
:10330000259726961FAE26972B961FAE2B972C96A9
:103310001FAE2C972F961FAE2F9761961FAE1EAE35
:103320006197A2961FAEA297A3961FAEA397A496ED
:103330001FAEA497AA961FAEAA972896DFAECEAE70
:1033400028972A96DFAECEAE2A972E96DFAECEAE67
:103350002E979E012F5B3F4F432D6681848195817F
:103360000E94C615D30157968C91823008F05FC039
:10337000C556DF4F88819981CB59D04085349C4018
:1033800009F053C0C356DF4F88819981CD59D04091
:103390008E3F9E4F09F049C05A8249829C828B829F
:1033A0001D821A861B861E86188A1F8619A21AA2DB
:1033B0001BA219A6BF82AE82B986A886BD86AC863E
:1033C0009E012F5F3F4F432DD30116966C911697A8
:1033D00014968D919C910E94C615F30187898230C5
:1033E00020F182E0878BFF24F39422C04F2D4331DC
:1033F00008F042E150E09E012D563F4FD301169652
:103400006C91169714968D919C910E947C15E82ED4
:10341000882309F4FCCED301ED91FC910480F58161
:10342000E02DC30109953E2C6ACE339411CFF12CC7
:10343000D30157964C91579731EDE32E423058F314
:10344000980116966C91169714968D919C910E94F6
:10345000A10B68EE73E080E090E00E94230C1F92C5
:103460001F921F921F92912C812CB12CA12CD12C38
:10347000C12CE12CF301048929E040E066818481BC
:1034800095810E94D813E82E0F900F900F900F9007
:103490008111C1CF68EE73E080E090E00E94230CC0
:1034A00010E01E01F1E42F0E311C412E512CD301EE
:1034B00014968D919C91159716966C911697579628
:1034C0002C9157972150330B421653060CF06FC0C6
:1034D000460C571CF11049C0F201C288D12C1F9232
:1034E0001F921F921F92912C812CB12CA12CE12CA8
:1034F00000E02AE041E2D30116966C9116971496EB
:103500008D919C910E94D8130F900F900F900F9067
:10351000811149C083E291E0F10191838083D2015E
:103520005296CC90D12C3F922F92E1E0F0E0EC0F3C
:10353000FD1FFF93EF9340E4842E912C50E8A52EBD
:10354000B12C62E2E62E00E026E041E8D3011696B7
:103550006C91169714968D919C910E94D8131F5FC1
:103560000F900F900F900F90A0CFF201C288D12C36
:103570001F921F921F921F92912C812CB12CA12C73
:10358000E12C5E960C912BE041E20E94D8130F9043
:103590000F900F900F90882309F49ECF853009F487
:1035A0009BCFE82E38CF853009F4B4CFFACF1F92E5
:1035B0001F921F921F92912C812CB12CA12CD12CE7
:1035C000C12CE12C01E023E040E00E94D81381E00F
:1035D000F301848F0F900F900F900F90312C8FCDAF
:1035E00029ED322E8CCD97ED392E89CD84ED382EF4
:1035F00086CDF601918280820ECF3F924F925F92EC
:103600006F927F928F929F92AF92BF92CF92DF92F2
:10361000EF92FF920F931F93CF93DF93EC01F62E5F
:10362000372E2C0182E1480E511C712C612C10E0C8
:103630008F898150990B681679060CF5F201C190BB
:103640002F01D12C1F921F923F92FF9288248394C6
:10365000912CAA24A394B12C22E0E22E00E029E0D0
:1036600041E26E818C819D810E94D813182BFFEF5F
:103670006F1A7F0A0F900F900F900F90D9CF812F64
:10368000DF91CF911F910F91FF90EF90DF90CF903E
:10369000BF90AF909F908F907F906F905F904F9072
:1036A0003F900895CF93DF931F92CDB7DEB7898304
:1036B00080917704882339F0BE016F5F7F4F8BE5DF
:1036C00094E00E94FD1A80915804882339F0BE01CD
:1036D0006F5F7F4F8CE394E00E94FD1A8091390464
:1036E000882339F0BE016F5F7F4F8DE194E00E9427
:1036F000FD1A80911A04882339F0BE016F5F7F4F55
:103700008EEF93E00E94FD1A0F90DF91CF91089504
:103710002F923F924F925F926F927F928F929F92E1
:10372000AF92BF92CF92DF92EF92FF920F931F93CF
:10373000CF93DF93CDB7DEB768970FB6F894DEBFAF
:103740000FBECDBF1B8A38E03C8B3CE33D8B8A3FEC
:103750003FEF9307D9F416ED812F68960FB6F894D2
:10376000DEBF0FBECDBFDF91CF911F910F91FF90B4
:10377000EF90DF90CF90BF90AF909F908F907F9011
:103780006F905F904F903F902F900895222E642E5F
:10379000362E7C01DC0116960D911C911797CE01F7
:1037A000439617969C938E9316971A962C939E0188
:1037B0002F5F3F4F42E150E060E0C7010E947C155F
:1037C000782EF70117830683182F8111C5CF4984FE
:1037D0005A848B849C84FD81FF8B3E81388F6701E6
:1037E00086E5C80ED11C56011E8AD5018D919D918A
:1037F0005D010097D1F5BE89BF5FBE8BB031A9F7DF
:10380000F601819191916F01009709F06EC0739458
:10381000F0E17F12F5CFF7018681978117ED892BB3
:1038200009F49ACF2286262D40E0632DC7010E941D
:10383000350B082F14ED882309F48ECF682FC701AC
:103840000E948A0B009709F486CFDC0114962C9213
:10385000602FC7010E944C15182F882309F47CCFD4
:10386000602FC7010E94130B77CFDC01ED91FC9113
:103870000084F185E02D09958111BDCFF50192916C
:1038800082918F01DC01ED91FC910088F189E02D9E
:10389000688D0995882309F4AECFF8018081918164
:1038A000DC01ED91FC910484F585E02DA401B201C9
:1038B0000995882361F0022D262D432D6E89C701BD
:1038C0000E94100E182F813D09F495CF45CFF801C5
:1038D00080819181DC01ED91FC910684F785E02DDA
:1038E0006F8909958111E7CF86CFDC01ED91FC91BD
:1038F0000084F185E02D0995811189CFF60192911F
:1039000082918F01DC01ED91FC910088F189E02D1D
:10391000688D099581110DC0022D262D432D672D2F
:10392000C7010E94100E182F877F813D09F014CF28
:103930006ECFF80180819181DC01ED91FC910484CE
:10394000F585E02DA401B2010995811160CFF80140
:1039500080819181DC01ED91FC910684F785E02D59
:103960006F8909958823C1F252CFEF92FF920F938E
:103970001F93CF930E94DD0E80915A03813041F056
:1039800058F0823009F460C0833069F0C0E022C092
:1039900083E18093AB03FACF8091AB03807F8031CA
:1039A000A9F381E1F6CFC1E08091AB03807F803144
:1039B00089F40E94BF0B68537F4F8F4F9F4F6093D6
:1039C000560370935703809358039093590380E2F2
:1039D0008093AB0380EDE82E84E0F82E8701D801B8
:1039E0008D919D918D01009739F0DC01ED91FC9155
:1039F0000680F781E02D0995B4E0003F1B0779F7B9
:103A00008091AB03803409F459C000F5803209F489
:103A10003FC0803309F44CC08131F9F41092F004B6
:103A2000F701819191917F01009739F0DC01ED91CF
:103A3000FC910480F581E02D09950E151F0581F795
:103A400082E18093AB0309C0C0E0AECF813509F4B9
:103A50005FC048F4803509F444C0CF911F910F91A5
:103A6000FF90EF900895803809F465C0803AA9F777
:103A70000E94BF0B68537F4F8F4F9F4F6093560339
:103A800070935703809358039093590380E2D9CFE2
:103A90000E94BF0B009156031091570320915803C9
:103AA00030915903601B710B820B930B97FDD5CF9F
:103AB00061E088EE0E94240D80E4C3CF88EE0E946E
:103AC000370D80FDCACF60E488EC0E94240D88ED9C
:103AD0000E94370D682F686088ED0E94240D80E5F4
:103AE000B0CF88EC0E94370D86FFB7CF81E5809379
:103AF000AB030E94BF0B6C507E4F8F4F9F4F609364
:103B00005603709357038093580390935903A5CF9E
:103B10000E94BF0B00915603109157032091580348
:103B200030915903601B710B820B930B97FD95CF5E
:103B300080E88093AB032C2F40E060E08AE794E0BC
:103B40000E94881B882329F0823D09F486CF80EAF1
:103B500078CF80E976CFCF92DF92EF92FF921F93DA
:103B6000CF93DF93EC01162F7A01FA0180819181C6
:103B7000A281B3818130F3E09F07F1E0AF07B10587
:103B8000C9F170F48115E1E09E07AE07B10509F4B3
:103B900050C081309140A140B10561F180E041C049
:103BA000833021E0920720E1A207B10529F083309C
:103BB0009340A041B10591F7412F64E1CE010E94ED
:103BC0001E16412F60E1CE010E941E1664E170E0D6
:103BD00080E090E00E94230C6A85F7012181269500
:103BE00021706770412F8A819B810E94881B1092EF
:103BF000B201D4CF8091B2018111D0CF412F61E1C8
:103C0000CE010E941E16412F60E1CE010E941E16B9
:103C1000412F64E0CE010E94721681E08093B201D0
:103C200081EBDF91CF911F91FF90EF90DF90CF90CC
:103C30000895462F61E1CE010E941E16412F60E1DA
:103C4000CE010E941E161092B2018A8587701770ED
:103C5000880F880F880F182B09F4A0CFEA80FB800B
:103C60006701F6E5CF0ED11CD0E0C0E0D6018D9102
:103C70009D916D010097C1F0DC01ED91FC910084F4
:103C8000F185E02D099518130FC0AB96CC0FDD1F01
:103C9000CE0DDF1D88819981DC01ED91FC910480BE
:103CA000F581E02D09957ACF2196C031D105F1F645
:103CB00075CFCF92DF92EF92FF920F931F93CF9326
:103CC000DF93CDB7DEB72E970FB6F894DEBF0FBEE9
:103CD000CDBFFC012089211111C010E0812F2E964B
:103CE0000FB6F894DEBF0FBECDBFDF91CF911F910D
:103CF0000F91FF90EF90DF90CF9008957C010E948C
:103D0000BF0BF7010485158526853785601B710B70
:103D1000820B930B97FDE1CF81E090E09E878D872A
:103D20008E010F5F1F4F9E01235F3F4F41E0628571
:103D3000828193810E94A113182F811121C082E0FA
:103D4000D82E01E089818D2139F119861A861B86CA
:103D50001C86AE01475F5F4F602FC7010E94471668
:103D6000C82E811119C0AE01475F5F4F602FC70198
:103D70000E94AB1D813B19F0882371F0C82E1C2DC9
:103D80000E94BF0B6C597F4F8F4F9F4FF701648785
:103D9000758786879787A2CFDD0C0F5F083091F675
:103DA00001E0F7018385801758F319861A861B8670
:103DB0001C86AE01475F5F4F602FC7010E94471608
:103DC000D82E811117C089859A85877091708130AE
:103DD000914081F48B859C8581609C878B87AE01A7
:103DE000475F5F4F602FC7010E94AB1D813B29F0E9
:103DF000811102C00F5FD5CFD82E1D2DC1CFCF931B
:103E0000DF93882309F45DC09EE7980F933020F577
:103E1000C2E0D9E3823831F0C4E0D7E4833811F44A
:103E2000C1E0D3E50E94DD058C2309F44AC08D2F43
:103E30000E9411040E942A042FEF41EE54E0215009
:103E400040405040E1F700C000008D2F0E94050463
:103E5000DF91CF910C942A049CEF980F913AB0F324
:103E600090E2980F983088F4877021E030E0A90143
:103E700002C0440F551F8A95E2F7CA0180959091C0
:103E80004503892380934503E3CF9BE5980F933047
:103E900030F490E080E0DF91CF910C94C70598E575
:103EA000980F973130F490E080E0DF91CF910C943F
:103EB000B105803F30F00E94AB02DF91CF910C94AE
:103EC000D70BDF91CF910895CF93DF93882309F427
:103ED00002C19EE7980F933020F5C2E0D9E3823803
:103EE00031F0C4E0D7E4833811F4C1E0D3E50E9497
:103EF000DD058C2309F0EFC08D2F0E9411040E9474
:103F00002A042FEF81EE94E0215080409040E1F7A9
:103F100000C000008D2F0E940504DF91CF910C940A
:103F20002A049CEF980F913A18F40E941104F5CFDF
:103F300090E2980F983068F4877021E030E001C07B
:103F4000220F8A95EAF780914503822B80934503DF
:103F5000E4CF9BE5980F933080F4853A41F0863AA0
:103F600049F083E890E0DF91CF910C94C70581E898
:103F700090E0F9CF82E890E0F6CF98E5980F97317E
:103F800008F090C0883A09F448C0893A09F448C05A
:103F90008A3A09F448C08B3A09F448C08C3A09F4CB
:103FA00048C08D3A09F448C08E3A09F448C08F3AA7
:103FB00009F448C0813B09F448C0803B09F448C07B
:103FC000823B09F448C0833B09F448C0843B09F4B0
:103FD00048C0853B09F448C0863B09F448C0873B8C
:103FE00009F448C0883B09F448C0893B09F448C03B
:103FF0008A3B09F448C08B3B09F448C08C3B09F468
:1040000048C08D3B09F448C08E3B09F448C090E09D
:1040100080E0DF91CF910C94B10582EE90E0F9CF72
:1040200089EE90E0F6CF8AEE90E0F3CF85EB90E05A
:10403000F0CF86EB90E0EDCF83EB90E0EACF84EB1E
:1040400090E0E7CF87EB90E0E4CF88EB90E0E1CF22
:104050008DEC90E0DECF83E891E0DBCF8AE891E061
:10406000D8CF82E991E0D5CF84E991E0D2CF81E247
:1040700092E0CFCF83E292E0CCCF84E292E0C9CF4E
:1040800085E292E0C6CF86E292E0C3CF87E292E07B
:10409000C0CF8AE292E0BDCF8FE690E0BACF80E752
:1040A00090E0B7CF8F3B79F4109245030E94010C4A
:1040B0002FEF80E792E0215080409040E1F700C070
:1040C00000000E940806803F30F00E947103DF91DB
:1040D000CF910C94D70BDF91CF910895AF92BF92FF
:1040E000CF92DF92EF92FF920F931F93CF93DF93C4
:1040F00000D000D01F92CDB7DEB76C0185E0F6018D
:10410000DE01119601900D928A95E1F7F60140814A
:1041100051812381348191E02115310531F05F3FD8
:1041200019F491E04F3F09F090E090FD9DC0F60139
:104130000281F580F2946FE0F62249835A830B8363
:10414000722F3D832C83602F8D810E945204182F83
:10415000E92FE295EF70F0E0E055FF4D0C94BE2F93
:10416000C020C020022102219D21D3216C216C217D
:10417000EB213421C122C1227023342114242824AC
:10418000F92FFF70FF2E907F19F0F29420EFF222AA
:104190000023D9F0FF2039F080914403F82AF092EF
:1041A00044030E942A04812F0F900F900F900F90CC
:1041B0000F90DF91CF911F910F91FF90EF90DF90C3
:1041C000CF90BF90AF900C94641F812F0E94FF1E70
:1041D000FF2009F449C0F09480914403F822F09242
:1041E00044030F900F900F900F900F90DF91CF919D
:1041F0001F910F91FF90EF90DF90CF90BF90AF9005
:104200000C942A04892F8F70907F903211F0829540
:10421000807F112379F0113009F44FC0002309F495
:1042200077C0FF2059F0F601958190FF61C09F7023
:10423000958304C0002341F1F11011C00F900F903D
:104240000F900F900F90DF91CF911F910F91FF90E2
:10425000EF90DF90CF90BF90AF900C94A70521E036
:10426000F212ECCF809343030F900F900F900F90BA
:104270000F90DF91CF911F910F91FF90EF90DF9002
:10428000CF90BF90AF900895F11013C010924303E8
:104290000F900F900F900F900F90DF91CF911F9183
:1042A0000F91FF90EF90DF90CF90BF90AF900C9464
:1042B0009C0531E0F312EACFD7CF002349F095E017
:1042C0009F1590F290914503982309F4B7CFE0CF62
:1042D000E4E0EF1548F2DCCF892F8F70907F9036A5
:1042E00011F08295807F002399F0FF2009F4A6CF7A
:1042F000812F0E94641F193309F0E6C1FFEF21EE00
:1043000034E0F15020403040E1F700C00000ACCF75
:10431000FF2009F4BDCF812F0F900F900F900F90C9
:104320000F90DF91CF911F910F91FF90EF90DF9051
:10433000CF90BF90AF900C94FF1E892F86958695E5
:104340008370D1F0813009F08FCF812F93700111EC
:1043500002C090E080E00F900F900F900F900F90B0
:10436000DF91CF911F910F91FF90EF90DF90CF9051
:10437000BF90AF900C94B105812F9370011102C0D2
:1043800090E080E00F900F900F900F900F90DF91D2
:10439000CF911F910F91FF90EF90DF90CF90BF9042
:1043A000AF900C94C705002399F00E9471030F9001
:1043B0000F900F900F900F90DF91CF911F910F9161
:1043C000FF90EF90DF90CF90BF90AF900C94D70B01
:1043D0000E94AB02ECCF892F837009F064C00111F9
:1043E00043CF812F829586958770880F880F412F44
:1043F0004F70C42ED12CF12CE12C082E04C0CC0C13
:10440000DD1CEE1CFF1C0A94D2F740E050E0BA011C
:1044100014FF11C00FE010E020E030E004C0000FF6
:10442000111F221F331F8A95D2F7B901A8014095A9
:1044300050956095709500913B0210913C0220913F
:104440003D0230913E029695969593709230E9F038
:1044500028F5913089F04C295D296E297F29402368
:1044600051236223732340933B0250933C02609399
:104470003D0270933E02F8CEC02AD12AE22AF32AE6
:104480004C295D296E297F29EECF4C295D296E29A3
:104490007F294027512762277327E5CF40235123E7
:1044A00062237323EDCF8695002311F0892F81704D
:1044B000882309F4D9CE812F829586958770880F3D
:1044C000880F412F4F70C42ED12CF12CE12C082ED7
:1044D00004C0CC0CDD1CEE1CFF1C0A94D2F740E09B
:1044E00050E0BA0114FF11C00FE010E020E030E00E
:1044F00004C0000F111F221F331F8A95D2F7B90184
:10450000A801409550956095709500913F021091DB
:104510004002209141023091420296959695937007
:104520009230E9F028F5913089F04C295D296E2907
:104530007F29402351236223732340933F025093EA
:10454000400260934102709342028ECE0C291D29D5
:104550002E293F29402B512B622B732BEECF4C2958
:104560005D296E297F294027512762277327E5CFD0
:1045700040235123622373234C295D296E297F290F
:10458000DCCF803F09F440C060F480E4810F8032CA
:1045900000F1002309F49FC0F110AACE892F8F717A
:1045A00064C0823F09F472C008F45BC0833F89F79E
:1045B000002309F480C0292F2F7181E090E0A0E052
:1045C000B0E004C0880F991FAA1FBB1F2A95D2F71D
:1045D0003AC0812F8071D82E892F8F71002351F01E
:1045E0000E941C05812F8295807FD11027CE812FBC
:1045F0008F7024CE0E94F804812F8295807FD11085
:1046000047CE812F8F7044CE002331F1E4E0EF15C7
:1046100008F42ACE292F2F7181E090E0A0E0B0E0CD
:1046200004C0880F991FAA1FBB1F2A95D2F740917B
:104630003F025091400260914102709142028427F2
:104640009527A627B72780933F0290934002A09317
:104650004102B093420208CEF5E0FF1508F404CE03
:10466000D9CF892F8F710023A9F00F900F900F9051
:104670000F900F90DF91CF911F910F91FF90EF90CE
:10468000DF90CF90BF90AF900C941C05892F8F7155
:10469000002359F30F900F900F900F900F90DF9120
:1046A000CF911F910F91FF90EF90DF90CF90BF902F
:1046B000AF900C94F80410923F02109240021092B6
:1046C000410210924202D0CD133509F417CE1734AF
:1046D00009F0CACD13CEF1101ECE892F8F71DACF1B
:1046E000882351F0813009F0BFCDF6018281E3EBE0
:1046F000F2E0811108C0B8CDF6018281E4E0F2E079
:10470000882309F4B1CDB12CA12CCC24C394D12C95
:104710008F010F5F1F4F8491853709F46FC018F523
:10472000843708F05BC0843008F074C0813099F1A0
:10473000823009F099CD7F0122E0E20EF11CF801F0
:10474000849190E2980F983008F045C087709601E8
:1047500002C0220F331F8A95E2F7922F9095809125
:10476000440389232BC0883709F451C058F4863795
:1047700009F44AC0873709F077CDB09245030E940B
:104780002A0424C09CE7980F903708F06DCD8F77EE
:104790000E94FF1E1BC07F0122E0E20EF11CF80107
:1047A000849190E2980F983070F48770960101C060
:1047B000220F8A95EAF780914403822B8093440369
:1047C0000E942A0402C00E94641F87018A2D815022
:1047D00020F5F8019DCF0E94FF1EF7CF9F012E5FAD
:1047E0003F4FF8010491015010F48901EFCF8FE998
:1047F0009FE00197F1F700C00000F5CFCF010296CE
:10480000F801A4908C01E2CFB0904503DFCF109265
:104810004503B5CF0E94641FD9CFEFE9FFE0319780
:10482000F1F700C00000D3CF81111ECD002309F4A1
:104830001BCD109245030E94010CFFEF20E732E0F0
:10484000F15020403040E1F700C000000E9408060F
:10485000009145038823A1F0813009F005CDF601D0
:104860008281882309F45AC00073003209F454C0CD
:10487000003309F4F9CC82E0003109F0F6CEF4CC33
:10488000F6018281882309F4EFCC192F1F70812F44
:1048900090E006FF31C080E4809345030E942A0423
:1048A00021E030E0802F827211F430E020E085E0DA
:1048B000829F6001839FD00C1124FAE01F9FC00CDF
:1048C000D11C1124EE24E394F12CF701EC0DFD1D15
:1048D000EB5DFE4F1081812F0E94641F812F0E948B
:1048E000FF1E2FEFE21AF20A35E0E316F10469F732
:1048F0000F7B0093450375CC2AE0289FF001299F88
:10490000F00D1124EB5DFE4F1081812F0E94641F7A
:10491000812F0E94FF1E65CC83E0A7CE80913F02CD
:1049200090914002A0914102B0914202817099277A
:10493000AA27BB2780933F0290934002A093410295
:10494000B093420210924503109244034ACC0F9355
:104950001F93CF93DF9380910802807FB9F48091F9
:104960000502882399F080913A0210910902609122
:10497000030270910402C0910602D091070221E067
:104980006F3F09F020E006E0181305C0DF91CF91DA
:104990001F910F91089531E0209721F0322F7F3F32
:1049A00009F030E090E030FD33C0089FF001099F2E
:1049B000F00D1124DF01A65FBD4F11963C911197B8
:1049C000371326C03C91361323C012963C911297A0
:1049D00031111EC013964D915C914C1B5D0B483CF0
:1049E0005105B0F4809108028F70806180930802B5
:1049F000E15FFD4F80818F708061808383E092E072
:104A00000E946E20DF91CF911F910F910C943C0575
:104A100001968770B9CF9F92AF92BF92CF92DF92EB
:104A2000EF92FF920F931F93CF93DF93CDB7DEB733
:104A300061970FB6F894DEBF0FBECDBF8C0185E045
:104A4000F801DE011D9601900D928A95E1F7F801BB
:104A500040815181F280C380D480909103026091A3
:104A60000402209106023091070281E021153105F0
:104A700031F06F3F19F481E09F3F09F080E0F82F9B
:104A8000F1709F2E80FD49C183E0A82E82E0B82EF0
:104A9000E0900502F601E21BF30BEE2009F400C1E1
:104AA00080910802782F707FE83CF10508F0BAC0C9
:104AB000711181C0EF2C651322C0941320C0F11036
:104AC0001EC08F70806180930802C5010E946E2015
:104AD00080910802F80185838E2D61960FB6F894B7
:104AE000DEBF0FBECDBFDF91CF911F910F91FF9021
:104AF000EF90DF90CF90BF90AF909F90089581E0AE
:104B0000C114D10431F05F3F19F481E04F3F09F047
:104B100080E080FD24C081E08F25F82FF170BF2E4A
:104B200080FF3FC080913A022091090236E0821353
:104B300018C07C2DD98AC88A6F2D89890E94520499
:104B4000292F22952F70223000F1243028F59F70F4
:104B500001F1F8019581907FE1F4E92CBDCF80E06F
:104B6000DCCF90E0389FF001399FF00D1124E65F13
:104B7000FD4F6181561306C06081461303C06281F8
:104B80006F110FC001968770D2CF9F7011F08823EC
:104B900021F3805E883008F3C8010E946E209B2CB0
:104BA000DCCFFF2009F498CF8091080281608093C8
:104BB0000802E12C91CF651306C0941304C0F801DC
:104BC000FF2009F488C04D875E87FF867C2DD98A37
:104BD000C88A6F2D89890E944605882309F4ABC0D5
:104BE000FF2009F4A8C080910802803270F0209163
:104BF00003023091040238872F831986DB86CA8628
:104C00008C87CE0107960E946E2086E0F801A3E013
:104C1000B2E001900D928A95E1F70E94A724EE245C
:104C2000E3945ACF71110AC083E092E00E946E2093
:104C300086E0F50111928A95E9F7BBCF65130FC0A5
:104C400094130DC0F1100BC0F8018583C8010E94B8
:104C50006E2086E0F50111928A95E9F73DCF4D87E8
:104C60005E87FF867C2DD98AC88A6F2D89890E942C
:104C70004605882309F45FC0FF2009F45CC08091D9
:104C80000802803210F220910302309104023A832C
:104C900029831B82DD82CC828E83CE010196B3CF25
:104CA000E83CF105B0F6EF2CFF2009F444C0651391
:104CB0001FC094131DC08091080280FD10C0982F62
:104CC000907F69F0F8018583903F31F0982F907FB5
:104CD000905F8F70892B8583C8010E946E2086E0CB
:104CE000F801A3E0B2E001900D928A95E1F7F4CECD
:104CF0004D875E87FF867C2DD98AC88A6F2D89896A
:104D00000E944605811181CF8091080281608093C5
:104D10000802C8010E946E20DFCEFF2061F04D879F
:104D20005E87FF867C2DD98AC88A6F2D89890E946B
:104D3000460581116ACFC8010E946E2070CF1F9373
:104D4000CF93DF93CDB7DEB767970FB6F894DEBF8A
:104D50000FBECDBF4B8B5C8B6D8B7E8B8F8B1A8A7E
:104D6000198A85E0FE017396DE011D9601900D9271
:104D70008A95E1F786E0FE013D96DE0117960190E7
:104D80000D928A95E1F7CE0107960E940B258111BD
:104D900037C086E0FE013796DE01119601900D9234
:104DA0008A95E1F79F8188852A853B85232B39F0F9
:104DB0008F3F19F481E09F3F19F080E001C081E04E
:104DC00080FD1EC02091090230E0C9010196877064
:104DD000992740913A024817190659F196E0929F97
:104DE000D001939FB00D1124A65FBD4FFE013196F7
:104DF00001900D929A95E1F7809309020E943C057B
:104E000016E080913A0290910902891709F1819F79
:104E1000C0011124865F9D4F0E940B258823C1F09D
:104E200080913A0290E001968770992780933A0228
:104E3000E8CF109245030E94010C109209021092D3
:104E40003A0286E0E3E0F2E0DF011D928A95E9F79D
:104E500067960FB6F894DEBF0FBECDBFDF91CF913E
:104E60001F910895CF93DF9300D01F92CDB7DEB787
:104E70002091FE01243041F520910A01222321F1E5
:104E800023E029839B838A8382E08093E9008FEF6C
:104E90009091E800815095FD06C095ED9A95F1F747
:104EA00000008111F5CF8091E80085FF0DC050E032
:104EB00040E063E070E0CE0101960E942D0A8091EF
:104EC000E8008E778093E8000F900F900F90DF91AD
:104ED000CF910895CF93DF9300D01F92CDB7DEB767
:104EE0002091FE01243081F520910A01222361F1F5
:104EF00019821A821B8222E029838138910520F0D1
:104F0000805891099B838A8382E08093E9008FEF28
:104F10009091E800815095FD06C095ED9A95F1F7C6
:104F200000008111F5CF8091E80085FF0DC050E0B1
:104F300040E063E070E0CE0101960E942D0A80916E
:104F4000E8008E778093E8000F900F900F90DF912C
:104F5000CF9108952091FE01243049F522E020935D
:104F6000E9002FEF3091E800215035FD06C035ED06
:104F70003A95F1F700002111F5CF2091E80025FFC7
:104F800016C020910A0150E040E063E070E0222367
:104F900039F021E02093F10050E040E065E070E05E
:104FA0000E942D0A8091E8008E778093E800089592
:104FB000CF93DF932091FE01243011F521E020935F
:104FC000E90021E8215021F03091E80035FF1BC0B5
:104FD0002091E80025FF14C0EC0150E040E068E0BB
:104FE00070E00E942D0A8091E8008E778093E8009F
:104FF00088E0FE01ABEEB1E001900D928A95E1F7F9
:10500000DF91CF910895EFE3F1E03197F1F700C020
:105010000000D8CF0F931F93CF93DF93F801228125
:10502000213061F0EC01DC01129688E001900D92D4
:105030008A95E1F70E94BF0B7B876A87DF91CF914A
:105040001F910F9108953F924F925F926F927F92BE
:105050008F929F92AF92BF92CF92DF92EF92FF9288
:105060000F931F93CF93DF9300D0CDB7DEB77C01B2
:105070004DB65EB6DC015C968C9181111BC0312C63
:10508000832D0FB6F8945EBE0FBE4DBE0F900F90ED
:10509000DF91CF911F910F91FF90EF90DF90CF9014
:1050A000BF90AF909F908F907F906F905F904F9048
:1050B0003F9008950E94BF0BF701808C918CA28CC9
:1050C000B38C681979098A099B0997FDD8CF6701C4
:1050D000B12CA12C312CD70157968C918150990B72
:1050E000A816B9060CF04DC06DB67EB6BFEFAB1A70
:1050F000BB0AF6014285838590E081349105E0F595
:105100009A83898389819A81ADB7BEB7A81BB90BF1
:105110000FB6F894BEBF0FBEADBFEDB7FEB7319668
:105120008F019E012F5F3F4FD70116966C91169706
:1051300014968D919C910E94A113382E811113C059
:1051400029813A812330310570F0F70180899189F6
:10515000009749F0DC01ED91FC910190F081E02D88
:1051600040E0B70109950FB6F8947EBE0FBE6DBE44
:10517000B3E0CB0ED11CAFCF20E430E03A832983DB
:10518000C1CF0E94BF0BF701258D620F711D811DDC
:10519000911D608F718F828F938F72CFCF931092FA
:1051A0005E0310925D0388EE93E0A0E0B0E0809390
:1051B0005F0390936003A0936103B093620385E75C
:1051C00091E090935C0380935B038FEF9FEF90934C
:1051D0006803809367038DE991E090937B0480934B
:1051E0007A041092820481E08093830410928404F4
:1051F0008CE794E0909381048093800410927C0467
:1052000088E080937D048CE380937E0410927F0479
:10521000EAE7F4E0C1E08CE794E01586C6871786DC
:1052200094878387359624E0E53CF207B1F7109226
:10523000F00481E18093AB038BE594E00E943F0290
:105240008CE394E00E943F028DE194E00E943F02D3
:105250008EEF93E00E943F0287EA91E09093F30380
:105260008093F2039093E7038093E6039093DB032C
:105270008093DA039093CF038093CE0387E891E085
:105280009093BE038093BD038AE794E09093C0039C
:105290008093BF031092CD031092C10388E08093E6
:1052A000C2039CE39093C303C093C4038093C503DC
:1052B00084E08093C6031092C7031092C803109233
:1052C000C9031092CA031092CB031092CC03A0ED35
:1052D000B4E0FD0190E080E021913191232B09F0B1
:1052E00044C0880F991FFC01E053FB4F8DEB93E006
:1052F0009183808387E891E09093AD038093AC0322
:105300008AE794E09093AF038093AE031092BC03BE
:105310001092B00388E08093B1039CE39093B203B2
:1053200091E09093B3038093B40384E08093B5033A
:105330001092B6031092B7031092B8031092B903FB
:105340001092BA031092BB0390E080E02D913D9142
:10535000232B89F4880F991FFC01E053FB4F8CEA43
:1053600093E091838083CF910895019680319105D8
:1053700009F0B2CFBFCF01968031910539F7F3CF55
:105380001F920F920FB60F9211248F939F93AF939A
:10539000BF9380914A03811113C08091460390917D
:1053A0004703A0914803B09149034196A11DB11D47
:1053B0008093460390934703A0934803B093490317
:1053C000BF91AF919F918F910F900FBE0F901F9043
:1053D00018951F920F920FB60F9211242F933F939F
:1053E0004F935F936F937F938F939F93AF93BF93ED
:1053F000CF93DF93EF93FF938091E10082FF09C089
:105400008091E20082FF05C08091E1008B7F809354
:10541000E1008091DA0080FF1FC08091D80080FFFA
:105420001BC08091DA008E7F8093DA008091D900D2
:1054300080FF1AC180E189BD82E189BD09B400FE07
:10544000FDCF81E08093FE018091E701811104C0CE
:105450000E94E9050E9427068091E10080FF3BC081
:105460008091E20080FF37C08091E2008E7F8093C0
:10547000E2008091E20080618093E2008091D80098
:1054800080628093D80019BC85E08093FE018091F2
:10549000E801882301F1109245030E94010C62E0AB
:1054A00088EC0E94240D88ED0E94370D682F677FDD
:1054B00088ED0E94240D8091F401882321F08091D1
:1054C000AB03803941F061E088E60E94240D60E181
:1054D00088E70E94240D8091E10084FF6FC08091D5
:1054E000E20084FF6BC080E189BD82E189BD09B41F
:1054F00000FEFDCF8091D8008F7D8093D8008091F1
:10550000E1008F7E8093E1008091E2008F7E8093A6
:10551000E2008091E20081608093E2008091F501D9
:10552000882309F4A7C084E08093FE018091E801FC
:10553000882309F443C0109245030E94010C809116
:10554000F401882321F08091AB038039E9F060E019
:1055500088E70E94240D88E60E94370D8823D9F33E
:10556000C0EDD4E089919991009739F0DC01ED917B
:10557000FC910480F581E02D0995B4E0C03FDB0784
:1055800089F780E18093AB0368E088EE0E94240DE8
:1055900088EE0E94370D83FDFBCF60E488EC0E940B
:1055A000240D88ED0E94370D682F686088ED0E94F9
:1055B000240D88EC0E94370D86FFFBCF8091E1001F
:1055C00083FF3FC08091E20083FF3BC08091E100F8
:1055D000877F8093E10082E08093FE011092F501C5
:1055E0008091E1008E7F8093E1008091E2008E7FC8
:1055F0008093E2008091E20080618093E20060E0AD
:1056000080E00E94790281E080930B011092E90111
:105610001092EA0198E0EBEEF1E0DF011D929A951D
:10562000E9F71092AB011092AC011092AD0110920B
:10563000AE011092AF011092B0011092B1018093AF
:105640000A01FF91EF91DF91CF91BF91AF919F91AF
:105650008F917F916F915F914F913F912F910F901B
:105660000FBE0F901F90189519BC1092FE0110925A
:10567000E701F2CE8091E30087FD02C081E054CFC4
:1056800083E052CFCF93DF93CDB7DEB72A970FB623
:10569000F894DEBF0FBECDBF84B7877F84BF0FB63F
:1056A000F894A895809160008861809360001092C2
:1056B00060000FBE80E890E00FB6F8948093610020
:1056C000909361000FBE80E091E090934E03809331
:1056D0004D030E94E9050E942706789482E084BD6C
:1056E00093E095BD9AEF97BD80936E008091C601BF
:1056F00081608093C601269A0E94FE0C219A229A0C
:105700002398209A80E58CBD81E08DBD259868E1C5
:1057100088E80E94240D60E288E70E94240D60E082
:1057200088E70E94240D10E000E088E60E94370D13
:105730000F5F1F4F80FF1CC061EC88ED0E94240D9D
:1057400060E280ED0E94240D64E088EE0E94240D4A
:1057500088EE0E94370D82FFFBCF0E94DD0E60E2D3
:1057600088EC0E94240D61E080E80E94240D03C0B3
:105770000F3F1007D1F682EF93E090936C04809373
:105780006B0486EE93E090934D0480934C048AED75
:1057900093E090932E0480932D048EEC93E09093ED
:1057A0000F0480930E048091FE01843009F0C3C081
:1057B00081E08093E80145EC442E41E0542E6624BC
:1057C0006394712C8091FE01853009F4C2C0609110
:1057D000FC037091FD034091F0035091F10320917F
:1057E000E4033091E5038091D8039091D903E091CF
:1057F000BB01F091BC016E177F07B1F4E091B901D4
:10580000F091BA014E175F0779F4E091B701F0917A
:10581000B801E217F30741F4E091B501F091B60148
:105820008E179F0709F45EC07093BC016093BB01A3
:105830005093BA014093B9013093B8012093B70156
:105840009093B6018093B50188E0EDEBF1E0119201
:105850008A95E9F72091F4033091F5034091F6031E
:105860005091F7036091F8037091F9038091FA0366
:105870009091FB030E943A0F2091E8033091E903D5
:105880004091EA035091EB036091EC037091ED03BA
:105890008091EE039091EF030E943A0F2091DC0378
:1058A0003091DD034091DE035091DF036091E0030E
:1058B0007091E1038091E2039091E3030E943A0F1B
:1058C0002091D0033091D1034091D2035091D30362
:1058D0006091D4037091D5038091D6039091D70342
:1058E0000E943A0F0E94CB0B0E94B51C8FB7F89410
:1058F00040914603509147036091480370914903DA
:105900008FBF8091AB039091B401981741F08093C1
:10591000B401803921F40E94DD050E94521B27EC5E
:10592000E22E21E0F22E312C30E2832E99249A943B
:1059300010E000E076C00E9434070E94B51C809100
:10594000AB039091B301981709F42DCF8093B30165
:105950002ACF8091FE01843021F110924A0388E120
:1059600090E020E40FB6F894A895809360000FBEF5
:105970002093600083B7817F846083BF83B7816099
:1059800083BF7894889583B78E7F83BF0FB6F894D2
:10599000A8958091600088618093600010926000FB
:1059A0000FBE8091F401882309F40CCF88EC0E948B
:1059B000370D81FF1AC062E088EC0E94240D80E15F
:1059C00089BD82E189BD09B400FEFDCF8091D80078
:1059D0008F7D8093D8008091E00082608093E0000A
:1059E0008091E00081FDFCCFEDCE64E088EE0E9466
:1059F000240D88EE0E94370D82FFFBCF88EF0E94B6
:105A0000370D807C803409F0DDCED9CFF8E08F16D9
:105A1000910408F08DCF0091BD01002309F488CFD7
:105A200010E0EFEBF1E08191843078F0982F9295BF
:105A30009F7039120AC08F70930102C0220F331F6A
:105A40008A95E2F7C901022B192B4E165F0659F70A
:105A5000F701A080B180A016B10671F1212CCC24F1
:105A6000C394D12CA026B126C5018C219D21892B60
:105A7000E9F02E823F8221E0C60180239123892B09
:105A800009F420E028870E94CB0B8160782F9A8749
:105A900089874E815F8168858A850E949F26F701EC
:105AA000808191818C259D25918380832394CC0CCA
:105AB000DD1CF0E12F12D8CF339420E1820E911C2F
:105AC00032E0E30EF11C40E13412A0CF8FEF898366
:105AD0008A831B820E94CB0B8160782F9D838C83ED
